{
  "contractName": "Marketplace",
  "abi": [
    {
      "inputs": [],
      "payable": false,
      "stateMutability": "nonpayable",
      "type": "constructor"
    },
    {
      "anonymous": false,
      "inputs": [
        {
          "indexed": false,
          "internalType": "uint256",
          "name": "id",
          "type": "uint256"
        },
        {
          "indexed": false,
          "internalType": "string",
          "name": "name",
          "type": "string"
        },
        {
          "indexed": false,
          "internalType": "address payable",
          "name": "owner",
          "type": "address"
        }
      ],
      "name": "CompanyCreated",
      "type": "event"
    },
    {
      "anonymous": false,
      "inputs": [
        {
          "indexed": false,
          "internalType": "uint256",
          "name": "id",
          "type": "uint256"
        },
        {
          "indexed": false,
          "internalType": "uint256",
          "name": "price",
          "type": "uint256"
        },
        {
          "indexed": false,
          "internalType": "bool",
          "name": "purchased",
          "type": "bool"
        }
      ],
      "name": "ProductPurchased",
      "type": "event"
    },
    {
      "constant": true,
      "inputs": [
        {
          "internalType": "uint256",
          "name": "",
          "type": "uint256"
        }
      ],
      "name": "companies",
      "outputs": [
        {
          "internalType": "uint256",
          "name": "id",
          "type": "uint256"
        },
        {
          "internalType": "string",
          "name": "name",
          "type": "string"
        },
        {
          "internalType": "address payable",
          "name": "owner",
          "type": "address"
        }
      ],
      "payable": false,
      "stateMutability": "view",
      "type": "function"
    },
    {
      "constant": true,
      "inputs": [],
      "name": "companyCount",
      "outputs": [
        {
          "internalType": "uint256",
          "name": "",
          "type": "uint256"
        }
      ],
      "payable": false,
      "stateMutability": "view",
      "type": "function"
    },
    {
      "constant": true,
      "inputs": [],
      "name": "name",
      "outputs": [
        {
          "internalType": "string",
          "name": "",
          "type": "string"
        }
      ],
      "payable": false,
      "stateMutability": "view",
      "type": "function"
    },
    {
      "constant": true,
      "inputs": [],
      "name": "productCount",
      "outputs": [
        {
          "internalType": "uint256",
          "name": "",
          "type": "uint256"
        }
      ],
      "payable": false,
      "stateMutability": "view",
      "type": "function"
    },
    {
      "constant": true,
      "inputs": [
        {
          "internalType": "uint256",
          "name": "",
          "type": "uint256"
        }
      ],
      "name": "products",
      "outputs": [
        {
          "internalType": "uint256",
          "name": "id",
          "type": "uint256"
        },
        {
          "internalType": "uint256",
          "name": "price",
          "type": "uint256"
        },
        {
          "internalType": "bool",
          "name": "purchased",
          "type": "bool"
        }
      ],
      "payable": false,
      "stateMutability": "view",
      "type": "function"
    },
    {
      "constant": false,
      "inputs": [
        {
          "internalType": "string",
          "name": "_name",
          "type": "string"
        }
      ],
      "name": "createCompany",
      "outputs": [],
      "payable": false,
      "stateMutability": "nonpayable",
      "type": "function"
    },
    {
      "constant": false,
      "inputs": [
        {
          "internalType": "address",
          "name": "_seller",
          "type": "address"
        }
      ],
      "name": "createPurchase",
      "outputs": [],
      "payable": true,
      "stateMutability": "payable",
      "type": "function"
    }
  ],
  "bytecode": "0x60806040526000600155600060025534801561001a57600080fd5b506040518060400160405280600681526020017f44656547656500000000000000000000000000000000000000000000000000008152506000908051906020019061006692919061006c565b50610111565b828054600181600116156101000203166002900490600052602060002090601f016020900481019282601f106100ad57805160ff19168380011785556100db565b828001600101855582156100db579182015b828111156100da5782518255916020019190600101906100bf565b5b5090506100e891906100ec565b5090565b61010e91905b8082111561010a5760008160009055506001016100f2565b5090565b90565b6108b9806101206000396000f3fe6080604052600436106100705760003560e01c80638e75dd471161004e5780638e75dd4714610254578063cc393f271461027f578063e0f6ef87146102c3578063fd7f611e146102ee57610070565b806306fdde03146100755780632813d19d146101055780637acc0b20146101f3575b600080fd5b34801561008157600080fd5b5061008a6103b6565b6040518080602001828103825283818151815260200191508051906020019080838360005b838110156100ca5780820151818401526020810190506100af565b50505050905090810190601f1680156100f75780820380516001836020036101000a031916815260200191505b509250505060405180910390f35b34801561011157600080fd5b5061013e6004803603602081101561012857600080fd5b8101908080359060200190929190505050610454565b60405180848152602001806020018373ffffffffffffffffffffffffffffffffffffffff1673ffffffffffffffffffffffffffffffffffffffff168152602001828103825284818151815260200191508051906020019080838360005b838110156101b657808201518184015260208101905061019b565b50505050905090810190601f1680156101e35780820380516001836020036101000a031916815260200191505b5094505050505060405180910390f35b3480156101ff57600080fd5b5061022c6004803603602081101561021657600080fd5b8101908080359060200190929190505050610536565b6040518084815260200183815260200182151515158152602001935050505060405180910390f35b34801561026057600080fd5b5061026961056d565b6040518082815260200191505060405180910390f35b6102c16004803603602081101561029557600080fd5b81019080803573ffffffffffffffffffffffffffffffffffffffff169060200190929190505050610573565b005b3480156102cf57600080fd5b506102d8610623565b6040518082815260200191505060405180910390f35b3480156102fa57600080fd5b506103b46004803603602081101561031157600080fd5b810190808035906020019064010000000081111561032e57600080fd5b82018360208201111561034057600080fd5b8035906020019184600183028401116401000000008311171561036257600080fd5b91908080601f016020809104026020016040519081016040528093929190818152602001838380828437600081840152601f19601f820116905080830192505050505050509192919290505050610629565b005b60008054600181600116156101000203166002900480601f01602080910402602001604051908101604052809291908181526020018280546001816001161561010002031660029004801561044c5780601f106104215761010080835404028352916020019161044c565b820191906000526020600020905b81548152906001019060200180831161042f57829003601f168201915b505050505081565b6003602052806000526040600020600091509050806000015490806001018054600181600116156101000203166002900480601f0160208091040260200160405190810160405280929190818152602001828054600181600116156101000203166002900480156105065780601f106104db57610100808354040283529160200191610506565b820191906000526020600020905b8154815290600101906020018083116104e957829003601f168201915b5050505050908060020160009054906101000a900473ffffffffffffffffffffffffffffffffffffffff16905083565b60046020528060005260406000206000915090508060000154908060010154908060020160009054906101000a900460ff16905083565b60015481565b60008190508073ffffffffffffffffffffffffffffffffffffffff166108fc349081150290604051600060405180830381858888f193505050501580156105be573d6000803e3d6000fd5b506002600081548092919060010191905055507fafabebf9435e5559ddf25e23d10467498df4ce241da1b6aab105723ef5b471366002543460016040518084815260200183815260200182151515158152602001935050505060405180910390a15050565b60025481565b600081511161063757600080fd5b600160008154809291906001019190505550604051806060016040528060015481526020018281526020013373ffffffffffffffffffffffffffffffffffffffff168152506003600060015481526020019081526020016000206000820151816000015560208201518160010190805190602001906106b79291906107df565b5060408201518160020160006101000a81548173ffffffffffffffffffffffffffffffffffffffff021916908373ffffffffffffffffffffffffffffffffffffffff1602179055509050507ff6a220697408fddd552172c86396a753921513c9ca6a4e1a7c1a7d8e61b81494600154823360405180848152602001806020018373ffffffffffffffffffffffffffffffffffffffff1673ffffffffffffffffffffffffffffffffffffffff168152602001828103825284818151815260200191508051906020019080838360005b838110156107a0578082015181840152602081019050610785565b50505050905090810190601f1680156107cd5780820380516001836020036101000a031916815260200191505b5094505050505060405180910390a150565b828054600181600116156101000203166002900490600052602060002090601f016020900481019282601f1061082057805160ff191683800117855561084e565b8280016001018555821561084e579182015b8281111561084d578251825591602001919060010190610832565b5b50905061085b919061085f565b5090565b61088191905b8082111561087d576000816000905550600101610865565b5090565b9056fea265627a7a723158201928f58f542b1159d04e413d3ae708e4952cc4b54d3800501589bb129adb3ca564736f6c63430005100032",
  "source": "pragma solidity ^0.5.0;\r\n\r\n\r\ncontract Marketplace {\r\n    string public name;\r\n    uint256 public companyCount = 0;\r\n    uint256 public productCount = 0;\r\n    mapping(uint256 => Company) public companies;\r\n    mapping(uint256 => Product) public products;\r\n\r\n    struct Company {\r\n        uint256 id;\r\n        string name;\r\n        address payable owner;\r\n    }\r\n\r\n    event CompanyCreated(uint256 id, string name, address payable owner);\r\n\r\n    struct Credit {\r\n        uint256 id;\r\n        string productName;\r\n        uint256 reward;\r\n        // address payable owner;\r\n        bool purchased;\r\n    }\r\n\r\n    struct Product {\r\n        uint256 id;\r\n        uint256 price;\r\n        bool purchased;\r\n    }\r\n\r\n    event ProductPurchased(uint256 id, uint256 price, bool purchased);\r\n\r\n    constructor() public {\r\n        name = \"DeeGee\";\r\n    }\r\n\r\n    function createCompany(string memory _name) public {\r\n        // Require a valid name\r\n        require(bytes(_name).length > 0);\r\n        // Require a valid price\r\n        // require(_price > 0);\r\n        // Increment product count\r\n        companyCount++;\r\n        // Create the product\r\n        companies[companyCount] = Company(companyCount, _name, msg.sender);\r\n        // Trigger an event\r\n        emit CompanyCreated(companyCount, _name, msg.sender);\r\n    }\r\n\r\n    function createPurchase(address _seller) public payable {\r\n        address payable seller = address(uint160(_seller));\r\n        address(seller).transfer(msg.value);\r\n        productCount++;\r\n        emit ProductPurchased(productCount, msg.value, true);\r\n    }\r\n\r\n    // function purchaseProduct(uint256 _id) public payable {\r\n    //     // Fetch the product\r\n    //     Product memory _product = products[_id];\r\n    //     // Fetch the owner\r\n    //     address payable _seller = _product.owner;\r\n    //     // Make sure the product has a valid id\r\n    //     require(_product.id > 0 && _product.id <= productCount);\r\n    //     // Require that there is enough Ether in the transaction\r\n    //     require(msg.value >= _product.price);\r\n    //     // Require that the product has not been purchased already\r\n    //     require(!_product.purchased);\r\n    //     // Require that the buyer is not the seller\r\n    //     require(_seller != msg.sender);\r\n    //     // Transfer ownership to the buyer\r\n    //     _product.owner = msg.sender;\r\n    //     // Mark as purchased\r\n    //     _product.purchased = true;\r\n    //     // Update the product\r\n    //     products[_id] = _product;\r\n    //     // Pay the seller by sending them Ether\r\n    //     address(_seller).transfer(msg.value);\r\n    //     // Trigger an event\r\n    //     emit ProductPurchased(\r\n    //         productCount,\r\n    //         _product.name,\r\n    //         _product.price,\r\n    //         msg.sender,\r\n    //         true\r\n    //     );\r\n    // }\r\n}\r\n",
  "sourcePath": "C:\\Users\\danie\\Documents\\CSE 4202\\Projects\\Application\\Reward System\\src\\contracts\\Marketplace.sol",
  "compiler": {
    "name": "solc",
    "version": "0.5.16+commit.9c3226ce.Emscripten.clang"
  },
  "schemaVersion": "3.1.0",
  "updatedAt": "2020-05-16T03:45:37.266Z",
  "networkType": "ethereum",
  "devdoc": {
    "methods": {}
  },
  "userdoc": {
    "methods": {}
  }
}