{
  "contractName": "Marketplace",
  "abi": [
    {
      "inputs": [],
      "payable": false,
      "stateMutability": "nonpayable",
      "type": "constructor"
    },
    {
      "anonymous": false,
      "inputs": [
        {
          "indexed": false,
          "internalType": "uint256",
          "name": "id",
          "type": "uint256"
        },
        {
          "indexed": false,
          "internalType": "string",
          "name": "name",
          "type": "string"
        },
        {
          "indexed": false,
          "internalType": "address payable",
          "name": "owner",
          "type": "address"
        }
      ],
      "name": "CompanyCreated",
      "type": "event"
    },
    {
      "constant": true,
      "inputs": [
        {
          "internalType": "uint256",
          "name": "",
          "type": "uint256"
        }
      ],
      "name": "companies",
      "outputs": [
        {
          "internalType": "uint256",
          "name": "id",
          "type": "uint256"
        },
        {
          "internalType": "string",
          "name": "name",
          "type": "string"
        },
        {
          "internalType": "address payable",
          "name": "owner",
          "type": "address"
        }
      ],
      "payable": false,
      "stateMutability": "view",
      "type": "function"
    },
    {
      "constant": true,
      "inputs": [],
      "name": "companyCount",
      "outputs": [
        {
          "internalType": "uint256",
          "name": "",
          "type": "uint256"
        }
      ],
      "payable": false,
      "stateMutability": "view",
      "type": "function"
    },
    {
      "constant": true,
      "inputs": [],
      "name": "name",
      "outputs": [
        {
          "internalType": "string",
          "name": "",
          "type": "string"
        }
      ],
      "payable": false,
      "stateMutability": "view",
      "type": "function"
    },
    {
      "constant": false,
      "inputs": [
        {
          "internalType": "string",
          "name": "_name",
          "type": "string"
        }
      ],
      "name": "createCompany",
      "outputs": [],
      "payable": false,
      "stateMutability": "nonpayable",
      "type": "function"
    }
  ],
  "bytecode": "0x6080604052600060015534801561001557600080fd5b506040518060400160405280600681526020017f446565476565000000000000000000000000000000000000000000000000000081525060009080519060200190610061929190610067565b5061010c565b828054600181600116156101000203166002900490600052602060002090601f016020900481019282601f106100a857805160ff19168380011785556100d6565b828001600101855582156100d6579182015b828111156100d55782518255916020019190600101906100ba565b5b5090506100e391906100e7565b5090565b61010991905b808211156101055760008160009055506001016100ed565b5090565b90565b6106a48061011b6000396000f3fe608060405234801561001057600080fd5b506004361061004c5760003560e01c806306fdde03146100515780632813d19d146100d45780638e75dd47146101b5578063fd7f611e146101d3575b600080fd5b61005961028e565b6040518080602001828103825283818151815260200191508051906020019080838360005b8381101561009957808201518184015260208101905061007e565b50505050905090810190601f1680156100c65780820380516001836020036101000a031916815260200191505b509250505060405180910390f35b610100600480360360208110156100ea57600080fd5b810190808035906020019092919050505061032c565b60405180848152602001806020018373ffffffffffffffffffffffffffffffffffffffff1673ffffffffffffffffffffffffffffffffffffffff168152602001828103825284818151815260200191508051906020019080838360005b8381101561017857808201518184015260208101905061015d565b50505050905090810190601f1680156101a55780820380516001836020036101000a031916815260200191505b5094505050505060405180910390f35b6101bd61040e565b6040518082815260200191505060405180910390f35b61028c600480360360208110156101e957600080fd5b810190808035906020019064010000000081111561020657600080fd5b82018360208201111561021857600080fd5b8035906020019184600183028401116401000000008311171561023a57600080fd5b91908080601f016020809104026020016040519081016040528093929190818152602001838380828437600081840152601f19601f820116905080830192505050505050509192919290505050610414565b005b60008054600181600116156101000203166002900480601f0160208091040260200160405190810160405280929190818152602001828054600181600116156101000203166002900480156103245780601f106102f957610100808354040283529160200191610324565b820191906000526020600020905b81548152906001019060200180831161030757829003601f168201915b505050505081565b6002602052806000526040600020600091509050806000015490806001018054600181600116156101000203166002900480601f0160208091040260200160405190810160405280929190818152602001828054600181600116156101000203166002900480156103de5780601f106103b3576101008083540402835291602001916103de565b820191906000526020600020905b8154815290600101906020018083116103c157829003601f168201915b5050505050908060020160009054906101000a900473ffffffffffffffffffffffffffffffffffffffff16905083565b60015481565b600081511161042257600080fd5b600160008154809291906001019190505550604051806060016040528060015481526020018281526020013373ffffffffffffffffffffffffffffffffffffffff168152506002600060015481526020019081526020016000206000820151816000015560208201518160010190805190602001906104a29291906105ca565b5060408201518160020160006101000a81548173ffffffffffffffffffffffffffffffffffffffff021916908373ffffffffffffffffffffffffffffffffffffffff1602179055509050507ff6a220697408fddd552172c86396a753921513c9ca6a4e1a7c1a7d8e61b81494600154823360405180848152602001806020018373ffffffffffffffffffffffffffffffffffffffff1673ffffffffffffffffffffffffffffffffffffffff168152602001828103825284818151815260200191508051906020019080838360005b8381101561058b578082015181840152602081019050610570565b50505050905090810190601f1680156105b85780820380516001836020036101000a031916815260200191505b5094505050505060405180910390a150565b828054600181600116156101000203166002900490600052602060002090601f016020900481019282601f1061060b57805160ff1916838001178555610639565b82800160010185558215610639579182015b8281111561063857825182559160200191906001019061061d565b5b509050610646919061064a565b5090565b61066c91905b80821115610668576000816000905550600101610650565b5090565b9056fea265627a7a72315820844535e055650895a2a5c7c8098a187c613258fdc6ecd9975b2c82ff0ced947f64736f6c63430005100032",
  "source": "pragma solidity ^0.5.0;\r\n\r\ncontract Marketplace {\r\n    string public name;\r\n    uint public companyCount = 0;\r\n    mapping(uint => Company) public companies;\r\n\r\n    struct Company {\r\n        uint id;\r\n        string name;\r\n        address payable owner;\r\n    }\r\n\r\n    event CompanyCreated(\r\n        uint id,\r\n        string name,\r\n        address payable owner\r\n    );\r\n\r\n    // event ProductPurchased(\r\n    // uint id,\r\n    // string name,\r\n    // uint price,\r\n    // address payable owner,\r\n    // bool purchased\r\n    // );\r\n\r\n    constructor() public{\r\n        name = \"DeeGee\";\r\n    }\r\n\r\n    function createCompany(string memory _name) public {\r\n        // Require a valid name\r\n        require(bytes(_name).length > 0);\r\n        // Require a valid price\r\n        // require(_price > 0);\r\n        // Increment product count\r\n        companyCount ++;\r\n        // Create the product\r\n        companies[companyCount] = Company(companyCount, _name, msg.sender);\r\n        // Trigger an event\r\n        emit CompanyCreated(companyCount, _name, msg.sender);\r\n    }\r\n\r\n    // function purchaseProduct(uint _id) public payable {\r\n    //     // Fetch the product\r\n    //     Product memory _product = products[_id];\r\n    //     // Fetch the owner\r\n    //     address payable _seller = _product.owner;\r\n    //     // Make sure the product has a valid id\r\n    //     require(_product.id > 0 && _product.id <= productCount);\r\n    //     // Require that there is enough Ether in the transaction\r\n    //     require(msg.value >= _product.price);\r\n    //     // Require that the product has not been purchased already\r\n    //     require(!_product.purchased);\r\n    //     // Require that the buyer is not the seller\r\n    //     require(_seller != msg.sender);\r\n    //     // Transfer ownership to the buyer\r\n    //     _product.owner = msg.sender;\r\n    //     // Mark as purchased\r\n    //     _product.purchased = true;\r\n    //     // Update the product\r\n    //     products[_id] = _product;\r\n    //     // Pay the seller by sending them Ether\r\n    //     address(_seller).transfer(msg.value);\r\n    //     // Trigger an event\r\n    //     emit ProductPurchased(productCount, _product.name, _product.price, msg.sender, true);\r\n    // }\r\n}",
  "sourcePath": "C:\\Users\\danie\\Documents\\CSE 4202\\Projects\\Application\\marketplace\\src\\contracts\\Marketplace.sol",
  "compiler": {
    "name": "solc",
    "version": "0.5.16+commit.9c3226ce.Emscripten.clang"
  },
  "schemaVersion": "3.1.0",
  "updatedAt": "2020-05-14T04:57:58.564Z",
  "networkType": "ethereum",
  "devdoc": {
    "methods": {}
  },
  "userdoc": {
    "methods": {}
  }
}